:020000040000FA
:10100000008E002091420100096502007D4201002E
:101010007D4201007D4201007D4201000000000090
:10102000000000000000000000000000F943010083
:101030007D42010000000000994301007D42010053
:10104000B9450100BDA20200B9450100B945010042
:10105000B9450100B9450100B9450100B945010094
:10106000D3A20200B9450100B9450100A7A20200C0
:10107000B9450100B9450100B9450100B945010074
:10108000B9450100B9450100B9450100B945010064
:10109000B9450100B9450100B9450100B945010054
:1010A000B9450100B9450100B9450100B945010044
:1010B000B9450100B9450100B9450100B945010034
:1010C000B9450100B9450100B9450100B945010024
:1010D000B9450100B9450100B9450100B945010014
:1010E000B9450100B9450100B9450100B945010004
:1010F000B9450100B9450100B9450100B9450100F4
:1011000080EA101404F0F01480EA0410604081EAD0
:10111000111404F0F01481EA0411614082EA1214FF
:1011200004F0F01482EA0412624083EA131404F01B
:10113000F01483EA0413634080EA102404F47F442B
:1011400080EA0420604081EA112404F47F4481EAAB
:101150000421614082EA122404F47F4482EA0422DA
:10116000624083EA132404F47F4483EA0423634047
:1011700081EA500404F0553480EA4400614083EA77
:10118000520404F0553482EA4402634082EA900437
:1011900004F0333480EA8400624083EA910404F06E
:1011A000333481EA84016340704700BF82EA9004CF
:1011B00004F0333480EA8400624083EA910404F04E
:1011C000333481EA8401634081EA500404F05534E9
:1011D00080EA4400614083EA520404F0553482EA14
:1011E0004402634080EA102404F47F4480EA04202F
:1011F000604081EA112404F47F4481EA04216140C3
:1012000082EA122404F47F4482EA0422624083EAE0
:10121000132404F47F4483EA0423634080EA101417
:1012200004F0F01480EA0410604081EA111404F024
:10123000F01481EA0411614082EA121404F0F014FF
:1012400082EA0412624083EA131404F0F01483EA81
:1012500004136340704700BF2DE9F14F94464FEAF5
:10126000930B8A68CB6808684968FFF749FF0BF160
:10127000060E33E083EA134480EA134582EA1347FB
:1012800046BA96EA3444604000F00F1684EA063409
:1012900020F00F1684EA161054BA94EA0106724040
:1012A00002F00F1486EA043622F00F1486EA1412B4
:1012B0004CBA6540694001F00F1485EA043521F00D
:1012C0000F1485EA14115CBA67407B4003F00F14D9
:1012D00087EA043723F00F1487EA1413BCE8F00000
:1012E0006040694072407B4000F0E03400F010350F
:1012F00000F00F3040EA540040EAC50080EA900454
:1013000004F0332480EA8400604001F0E03401F00E
:10131000103501F00F3141EA540141EAC50181EA7B
:10132000910404F0332481EA8401614002F0E03446
:1013300002F0103502F00F3242EA540242EAC502CE
:1013400082EA920404F0332482EA8402624003F0C9
:10135000E03403F0103503F00F3343EA540343EA5B
:10136000C50383EA930404F0332483EA84036340CF
:1013700081EA324787EA134581EA354690EA060456
:1013800084EA034B82EA1B4280EA044484EA05446F
:1013900083EA144A85EA14448BEA044B84EA37440E
:1013A00081EA0B4181EA164104EA0A00454082EADB
:1013B00004082BEA080041408AEA0B0602EA06000C
:1013C00084EA34438AEA3A4603EA0607784045400D
:1013D000414088EA38478BEA3B4007EA000985EA42
:1013E000090583EA0709464006EA0906714085EACD
:1013F000010005EA3546464006EA314181EA3041BE
:1014000081EA364606EA304686EA3546344008EA3E
:10141000010886EA01052A4086EA364003405A4020
:1014200081EA31431F407C4080EA030709EA07094B
:1014300088EA0908544088EA020806EA0A0601EA2E
:101440000B018AEA0B0215408AEA3A4210404540F5
:101450008BEA3B4003405E404240174079404D409C
:101460004E40E443F64386EA18435D4085EA054072
:1014700083EA134386EA034183EA384284EA11434C
:1014800083EA04435FEA3343BEF1010E3FF6F2AE56
:101490001ED4BCE8F0006040694072407B4020BC34
:1014A000FFF784FE28606960AA60EB60BDE8F08FFA
:1014B0002DE9E0414FF2F00280EA1031114080EA5C
:1014C0000130484041088208C3084FF0000E4FE742
:1014D00000F0113001F0113102F0113203F011333C
:1014E00040EA410040EA820040EAC3004FF2F002C5
:1014F00080EA1031114080EA01304840BDE8E081C7
:101500002DE9F04F02F11C050646074600EB850861
:1015100051F8040B043A46F8040BF9D14FF0010CD2
:10152000FFF7C6FF5FEA302080EA0C001ECF414083
:101530004A4053405C401EC62000464517D04FEA43
:101540004C0C1CF4807F18BFACF1E50C2C2DE7D0BF
:101550003C2D06D1FFF7ACFF06CF41404A4006C6FE
:10156000100006CF41404A4006C61000D8E736E9D1
:101570000F00FFF7C5FD043D86E80F00F7D1BDE879
:10158000F08F00BF2DE9F14F03F11C0402EB840C36
:101590004FEA930B8A68CB6808684968FFF7B0FD8B
:1015A0003CE9F0006040694072407B400BF1060E60
:1015B0004EE083EA134480EA134582EA134746BAB1
:1015C00096EA3444604000F00F1684EA063420F0B6
:1015D0000F1684EA161054BA94EA0106724002F01B
:1015E0000F1486EA043622F00F1486EA14124CBA5D
:1015F0006540694001F00F1485EA043521F00F14AD
:1016000085EA14115CBA67407B4003F00F1487EA47
:10161000043723F00F1487EA141344BA44404DBA38
:101620004D4056BA56405FBA5F4087EA174886EA8F
:10163000174B84EA17464FEA38488BEA1B4485EA81
:101640001B4788EA1B4580EA3440694072407B4072
:1016500000F0703400F0803500F00F3040EA4400B4
:1016600040EAD50080EA900404F0332480EA840044
:10167000604001F0703401F0803501F00F3141EA33
:10168000440141EAD50181EA910404F0332481EA5E
:101690008401614002F0703402F0803502F00F32B4
:1016A00042EA440242EAD50282EA920404F0332478
:1016B00082EA8402624003F0703403F0803503F064
:1016C0000F3343EA440343EAD50383EA930404F067
:1016D000332483EA84036340C943DB4381EA000483
:1016E00083EA044686EA020183EA014382EA33453B
:1016F00083EA14435C4084EA00077FEA040A8AEA2A
:10170000024A8AEA010B87EA11488AEA374A80EAE4
:10171000060181EA1A418AEA030A04EA0A004540FE
:1017200088EA040707EA0B0041408AEA0B0608EA48
:10173000060084EA34428AEA3A4602EA060358403E
:101740004540414087EA37438BEA3B4003EA0009C2
:1017500085EA090582EA0309464006EA090671405E
:1017600085EA010005EA3546464006EA314181EA4C
:10177000304181EA364606EA304686EA354634404C
:101780000F4086EA010508EA050886EA364002406D
:1017900088EA020881EA314213405C4080EA020391
:1017A00009EA030987EA0907674088EA040806EAA4
:1017B0000A0601EA0B018AEA0B0425408AEA3A4448
:1017C000204045408BEA3B4B02EA0B02564084EA3C
:1017D0000B04234059406E40694087EA364080EA56
:1017E000384080EA060380EA104481EA134585EA1E
:1017F000344585EA17427D4082EA354180EA05405A
:101800003CE9F0006040694072407B40BEF1010E4F
:101810003FF6CFAE20BCFFF7C9FC28606960AA6024
:10182000EB60BDE8F08F00BFFFF76ABE2DE9F0075F
:1018300091E8F807B2E802105B1854EB0C04B2E828
:1018400002104D4156EB0C06B2E802104F4158EB26
:101850000C08B2E8021059EB01095AEB0C0A80E8B7
:10186000F80780410130BDE8F00770472DE9F00727
:1018700091E8F807B2E802105B1A74EB0C04B2E8C6
:1018800002108D4176EB0C06B2E802108F4178EB26
:101890000C08B2E8021079EB01097AEB0C0A80E837
:1018A000F80780414042BDE8F00770472DE9F00796
:1018B000524290E87800B1E880071740DB1918EA37
:1018C000020854EB080419EA020955EB09051AEA63
:1018D000020A56EB0A0678C090E87800B1E8800763
:1018E00017407B4118EA020854EB080419EA020980
:1018F00055EB09051AEA020A56EB0A0678C0804140
:101900000130BDE8F00770472DE9F007524290E83A
:101910007800B1E880071740DB1B18EA020874EB77
:10192000080419EA020975EB09051AEA020A76EBBE
:101930000A0678C090E87800B1E880071740BB41FC
:1019400018EA020874EB080419EA020975EB0905A4
:101950001AEA020A76EB0A0678C080414042BDE8E6
:10196000F00770472DE9F00152424FF0040890E86B
:10197000300091E8C000A31B1340E41AF618EB1BDB
:101980001340ED1AFF1830C0C0C1B8F10108EED104
:10199000BDE8F001704700BF00B592E8DC072DE913
:1019A000DC07B1E8805702B4A7FB02510A95A8FBF7
:1019B000020BE7FB6310E9FB62B00B91A8FB03513C
:1019C000EAFB6201E7FB64B5E7FB6605E8FB661529
:1019D000CDF830B0A9FB03B6EAFB6316ECFB635607
:1019E000E8FB640BE9FB641BEAFB645BECFB646BE8
:1019F0000D90ACFB0230059CEEFB6250E9FB64608D
:101A0000EAFB64B0E7FB6431E8FB6451069CE8FB49
:101A10006461E9FB64B1EAFB64010E93A7FB043245
:101A2000079CE7FB6462E8FB64B2E9FB6402EAFB43
:101A30006412049CE9FB6453EAFB6463089CE7FBC3
:101A400064B3E8FB6403E9FB6413EAFB64230F95CA
:101A50005DF8049B99E80006DDF80080A9FB0854B6
:101A6000EAFB68B4DDF81080ECFB6804EEFB681458
:101A7000E9FB6824EAFB6834DDF80480EEFB686566
:101A8000E9FB68B5EAFB6805DDF81480ECFB681536
:101A9000EEFB6825E9FB6835EAFB68450F96DDF843
:101AA0000880AEFB0876E9FB6806EAFB6816DDF8FD
:101AB0001880ECFB6826EEFB6836E9FB6846EAFB1B
:101AC0006856DDF80C80ECFB68B7EEFB6807E9FBB5
:101AD0006817EAFB6827DDF81C80ECFB6837EEFB33
:101AE0006847E9FB6857EAFB686708B000BD00BFBC
:101AF0002DE9F14F87B0FFF74FFFDDF81C8008F1AB
:101B0000200888E8FF00FFBC87E87F08BDE8F08F69
:101B100000B591E89857A3FB03520195A3FB04017C
:101B2000E3FB6420E3FB67100292A3FB0752E3FB95
:101B30006802E4FB6415E3FB6805E3FB6925039198
:101B4000A4FB07B6E3FB6926E3FB6A56E4FB670BDD
:101B5000E4FB682BE3FB6A5BE3FB6C6B0490A4FB88
:101B60000810E4FB6950E3FB6C60E3FB6EB0E7FB3D
:101B70006721E4FB6951E4FB6A61E3FB6EB1E4FBBE
:101B80006E010592A7FB0832E4FB6A62E4FB6CB2CB
:101B9000E4FB6E02E7FB6E12E7FB6853E7FB696349
:101BA000E4FB6CB3E7FB6C03E7FB6E13E8FB6E230F
:101BB0000695A7FB0954E7FB6AB4E7FB6C04E8FB56
:101BC0006C14E8FB6E24E9FB6E34E8FB6865E7FB08
:101BD0006AB5E8FB6A05E8FB6C15E9FB6C25E9FBD7
:101BE0006E35EAFB6E450796A8FB0976E8FB6A06A8
:101BF000E9FB6A16E9FB6C26EAFB6C36EAFB6E46EB
:101C0000ECFB6E56E8FB69B7E9FB6907E9FB6A176D
:101C1000EAFB6A27EAFB6C37ECFB6C47ECFB6E5780
:101C2000EEFB6E6700BD00BF2DE9F14F87B0FFF7F7
:101C30006FFFDDF81C8008F1200888E8FF00FFBC7A
:101C400087E87F08BDE8F08F30B44FF0000310F84C
:101C5000014B11F8015B013A84EA050443EA0403ED
:101C6000F5D1A3F101034FEAD37030BC704700BF38
:101C70004FF0000310F8012B013943EA0203F9D1B8
:101C8000A3F101034FEAD370704700BF30B411F8DD
:101C9000014B12F8015B6C4000F8014B013BF6D19F
:101CA00030BC70472DE9F00791E8F807B2E8021060
:101CB0005B1854EB0C04B2E802104D4156EB0C06D5
:101CC000B2E802104F4158EB0C08B2E8021059EB91
:101CD00001095AEB0C0A8941B3F1FF3374F1FF3467
:101CE00075F1FF3576F1000677F1000778F100080D
:101CF00079F101097AF1FF3A51F100015B184C4189
:101D00004D4156F1000657F1000758F1000859EB14
:101D1000D1795AEB010A80E8F807BDE8F00770476F
:101D20002DE9F00791E8F807B2E802105B1A74EBAE
:101D30000C04B2E802108D4176EB0C06B2E80210FA
:101D40008F4178EB0C08B2E8021079EB01097AEBCD
:101D50000C0A89415B184C414D4156F1000657F180
:101D6000000758F1000859EBD1795AEB010A80E8D5
:101D7000F807BDE8F007704718EB040859EB0509B0
:101D80005AEB060A5BEB070B5FF0000C4CF1000C02
:101D900018EB050859EB06095AEB070A5BEB070B32
:101DA00050EB0C005FF0000C51EB0C0152EB0C02FD
:101DB00063414CF1000CB8EB070879F100097AF1A6
:101DC000000A7BEB040BA841B141A241B3416CF185
:101DD000000CBBEB050BB041B941AA41BB416CF112
:101DE000000C4CF001068CF0020718EB060859EBCA
:101DF0006C095AEB6C0A7BEB6C0B70EB6C0471EBAF
:101E00006C0572EB670653EB6C076CEB6C0C18EB14
:101E10000C0059EB0C015AEB0C025BF1000354F17E
:101E2000000455F1000556EBDC7657EB0C077047C4
:101E30002DE9F14F87B0FFF7AFFDDDF81080DDF839
:101E40001490DDF818A0FFF797FFBDE8000FFFF72B
:101E500093FF03B05DF8048B88E8FF00BDE8F08FC6
:101E60002DE9F14F87B0FFF753FEDDF81080DDF864
:101E70001490DDF818A0FFF77FFFBDE8000FFFF713
:101E80007BFF03B05DF8048B88E8FF00BDE8F08FAE
:101E9000064B074A5B7802604FF41A728280C37166
:101EA0000822002382710372704700BF600D00207A
:101EB00061010100064B074A5B7A02604FF49072A1
:101EC0008280C3710822FF2382710372704700BFB2
:101ED000600D002079FC0000F8B5C41D002824F036
:101EE0000704054614BF2046002000F0E7FA071E4D
:101EF00002DA6FF00B00F8BD254EB1887088F379D7
:101F0000B2790331033089B280B20BF043FD00286F
:101F1000EFDB737831783C4403341944002D24F00E
:101F2000030400FB01F114BF2046002000F04AFC2E
:101F300023180DB9002BDCDB717A184679B1033315
:101F4000002D23F0030414BF20460020728900F006
:101F5000ABFC0028CDDB20440DB90028C9DB317A69
:101F600091B1737A83B1C41D002D24F0070414BF0E
:101F70002046002003F038FC0028BADB0DB1002019
:101F8000B9E72018B7D5B4E7002DF8D1B3E700BF03
:101F9000600D00201FB572B6194BDD68EDB9BFF3B7
:101FA0004F8F1849184BCA6802F4E0621343CB60A4
:101FB000BFF34F8F00BFFDE72346B2FBF6F25C1C78
:101FC000002AF9D104AEDCB256FA83F303F80C2CE4
:101FD0000A2234B901A8A847E1E7024600230A26ED
:101FE000EDE7631E04AEDCB256FA83F3B0FBF2F603
:101FF00002FB1600303003F80C0C3046E9E700BF56
:10200000600D002000ED00E00400FA0507B50A4B62
:10201000DA88ADF8002068469A885B88ADF804201D
:10202000ADF8023001F074FE18B1FC219C20FFF7DE
:10203000B1FF03B05DF804FB600D002038B5054624
:1020400040B30AF0BDFC10B94FF0FF3038BD0AF0C4
:102050001FF8B0F5FA7FF7D8104C1148E56000F092
:10206000A7F9002323744FF4807323801B2363801C
:10207000A38040F20323E3804FF4847323811F2362
:102080006381EFF3108472B600F0E4FC04B962B629
:102090000020DBE76FF01500D8E700BF600D0020DF
:1020A0000D20000010B5002840D1234C237C032BC9
:1020B00039D059B1002A3CD00239052936D8DFE899
:1020C00001F0031227352A2D137863700020FFF7E3
:1020D00003FF0028B7BF0123022323746FF00B0016
:1020E000A8BF237410BD13791BB353790BB31188A8
:1020F000FB291ED853881B3B9BB2E02B19D81A2909
:1021000017D91368C4F802300C4B92889A80DDE727
:1021100013786372DAE713886381D7E71388FF2B9C
:1021200007D82372D2E74FF0FF30DBE76FF02C00C7
:10213000D8E76FF01500D5E7600D0020620D002094
:10214000F8B50D46064620B319B311F0070420D1A7
:10215000114F3B7C012B02D16FF00B00F8BD032B1C
:1021600002D14FF0FF30F9E700F060F80028F8D016
:102170002846FFF7B1FE0028EEDB0EF056F8304699
:10218000214601F059FEFFF741FF03233B7420462F
:10219000E4E76FF01500E1E7600D002010B5064C94
:1021A000237C032B03D101F05FFE02F025FE0BF030
:1021B000F2FC0020207410BD600D002050B1074BD0
:1021C00003F1140253F8041B40F8041B9342F9D1A5
:1021D000002070476FF01500704700BFABE30200AE
:1021E00008B501F0F3FDBDE808400249012000F008
:1021F0005DB900BFB51E000008B501F0FBFDBDE8EC
:1022000008400249002000F051B900BF911E0000B3
:10221000024B02681A600020704700BF740D002056
:10222000014B1B68184700BF740D0020024B186853
:10223000003818BF01207047740D00202DE9F743C6
:10224000264E0446071D2548376002F0EDFD0228A2
:10225000054607D1214920460AF04CFF284603B025
:10226000BDE8F0830428F9D13378072B18D13E203C
:1022700000F04AF878B9F378327901A943EA0223E9
:102280006846ADF800300BF05BF90028DBD0532135
:102290000820FFF77FFE052000F076F80028EAD03E
:1022A000314620460AF055FFB0F5817F01D37221F7
:1022B000EEE70028C7D094F8008094F802904046DA
:1022C00000F022F80028BED0B8F13E0FC6D1484633
:1022D00000F05AF80028C1D1B5E700BF780D002002
:1022E000074B4FF0FF3141F6FF72C3E90012054979
:1022F0000022C1E900221F21C3E90212704700BF7A
:1023000000000020BC0D00203F280CD801380B4BEA
:10231000C0F3421200F01F0053F8223023FA00F0FD
:1023200000F001007047FF2806D04038C0F3421289
:10233000034B00F01F00EFE7012070470000002072
:10234000BC0D00200146074B006849681A4603C2CD
:1023500040F48C221A6041F0107242F4FF625A601D
:10236000704700BF000000200246024B0068516821
:1023700003C37047BC0D00200246024B0068516841
:1023800003C3704708000020F42800F1FF33DBB2DC
:102390001FBF064A590902EB810203F01F031DBF4C
:1023A0009068D84000F00100002070470000002035
:1023B000014B1860704700BFC40D002010B5FFF737
:1023C0008FFF0BF0A9FD034B1B68044603B1984730
:1023D000204610BDC40D0020F0B50C88C37C0288D7
:1023E000A5B2C4F30E0404F118060233865B1A4446
:1023F000334497B213FA82F3013B4288B3FBF7F3FD
:1024000013FB07439BB29A42044A93BF22EA050397
:102410002A4013439BB20B80F0BD00BF0080FFFF3A
:102420004A1E062A08B50346084604D84FF4D1715F
:102430001520FFF7AFFD094A914202D940F2A311DE
:10244000F6E711B903B1196008BD2BB11B68002272
:10245000C3E901211A1D1A600430F5E7FAFFFF7F76
:1024600010B5114B00EB41041A786389B3FBF2F30A
:1024700003FB0223013A1A44B2F5706F02798078A7
:1024800028BF00231A440B18B2FBF0F100FB112106
:102490005B1AB3FBF0F100FB113313446FEA4343C3
:1024A0006FEA5343638110BDC80D0020024B03EB5C
:1024B00080035960704700BFC80D00202DE9F04F20
:1024C00010F0070A85B0054604D040F261111720CC
:1024D000FFF760FD524F07F10C06B1460446B046C7
:1024E00057F8043B8DF80BA03BB101A898479DF825
:1024F0000A30082B01D9E821E9E79DF80B1041BB10
:1025000005B131604F4506F10406E9D1002D6FD0C9
:10251000DFF81091002289F800209646022758F82B
:1025200027A0013FBAF1000F55D09AF804609AF83D
:1025300002C0FF2E60D039460023481C38D19C448D
:10254000BCF1FF0F3FD90AB189F800E040F2271132
:10255000BDE79DF80AC06046022838BF02204B1D27
:102560005A0004EB4303441E2344BDF8084064446E
:10257000013CCCF1000C04EA0C044042B4F5803F6D
:1025800003EA000301D3F821A1E775B19A1A0120EB
:10259000326091701480D0709DF80C001071019819
:1025A00010814FEA104CA2F806C004FB0134A9E7E1
:1025B00058F8210028B190F804B0B34504BF8078E2
:1025C0001B180139B9E7DBB2E6458AF804303CBF95
:1025D0005FFA8CFE01227B1CA1D10AB189F800E0D0
:1025E000022640F6FF6A58F82670B7B9013EFAD2C3
:1025F000601B05B0BDE8F08F0023E5E707EB410362
:102600003846A3F80AA0FFF72BFF09F10109BB78B0
:102610005FFA89F18B42F1D8E8E74FF00009F6E75D
:10262000CC0D0020C80D002038B54FF6FF73038095
:10263000184B03EB810302461869A8B1847803792B
:10264000B3FBF4F104FB1133DBB2194600EB410597
:10265000B5F90A50002D0EDB0131B1FBF4F504FB96
:102660001511C9B28B42F1D1002038BD6381BDE89C
:1026700038400BF06BB900EB41046389C3F30E03E0
:102680001380C278002AF1D14FF4D5711720FFF7DB
:1026900081FC00BFC80D00201C4B03EB810370B50B
:1026A0001C69054644B3030404D54FF4DC711720BC
:1026B000FFF770FC014620460BF02AF9FF2801467F
:1026C00004D02046BDE870400BF040B9A078B5FBBF
:1026D000F0F300FB1353DBB219460A1D04EB42066C
:1026E000B6F90260002E09DB0131B1FBF0F200FB0C
:1026F0001211C9B28B42F0D1002070BD8B4201D0C3
:102700000023E37004EB42025580DAE7C80D002095
:10271000094B03EB810310B51C69014620460BF001
:10272000F7F8FF28014604D02046BDE810400BF022
:102730000DB9002010BD00BFC80D0020F8B5104B2A
:1027400003EB810307461C69014620460BF0E0F8C5
:10275000FF28054611D0E288238953EA024606D0B5
:10276000014620460BF0F2F801463846B0472046B5
:102770002946FFF775FE0020F8BD0520FCE700BFE5
:10278000C80D002038B50E4B827903EB8203044656
:10279000186908B9052038BD8278E1799142F9D2EB
:1027A0004B1CE37100EB41035D89B3F90A30002B48
:1027B000F3DBA5800BF0CAF820600020EBE700BF38
:1027C000C80D002070B5044610F003000E4603D07B
:1027D0004E211820FFF7DEFBFFF722FE054624B14D
:1027E000034831460460FFF71BFE284670BD00BF5A
:1027F000E40D00202DE9F14FDFF870B09DF828A01E
:102800009DF82C901E46DBF8003007460D4690469A
:102810001BB960211820FFF7BDFB52460921404635
:102820000AF0F3FE4A4684B2092130460AF0EDFE72
:1028300014FA80F1DBF800000BF03EF8386018B9AC
:10284000286001B0BDE8F08F04442C60386853461E
:10285000414609220AF09CFE28684B46092231466F
:1028600001B0BDE8F04F0AF093BE00BFE40D0020B8
:1028700070B50E4604460AF0DBFE054630460AF007
:10288000D7FE044B2A1821461868BDE870400BF0AB
:1028900038B800BFE40D0020024B186808B10AF0F8
:1028A000FFBF7047E40D00201F2AF8B50446134609
:1028B0000ED89200033222F00303B3F5803F2DD2ED
:1028C000184DACB1A00710D05F210920FFF762FBC3
:1028D000FF2B4FEA420204D9FF339A42A8BF1A469F
:1028E000E8E77C2AB8BF7C22E4E729706C602B8182
:1028F00022F003022823120403FB01F001276B6876
:10290000120C0025EEB2B14200D8F8BD14B1261861
:102910001F705E60104401352833F3E74FF0FF303D
:10292000F3E700BFE80D002070B5154A157853682D
:102930000021C8B2854203D8AB210920FFF72AFB4A
:102940001C46184614F8286B01310EB92346F0E7EF
:1029500000219970128999610124D96159685C70CC
:10296000920803F11E0403F1260524F8022FA54264
:1029700043F8041F1144F8D100234361037070BD74
:10298000E80D00204B782DE9F04106460C4602F098
:10299000040702F0FB05E3B1A5BBFF23A3707B088E
:1029A00004EB57073A7D032A02D1022D18BF0133E9
:1029B000E2180121117503F10C0104EB83030022DD
:1029C00024F811205B68A2703360B2803046BDE805
:1029D000F081002DE1D101234B701D4B8D611B89CE
:1029E000CD6101F11E0249689B08204604F1260CC6
:1029F00022F8023F944540F8041F1944F8D10023FF
:102A00006361CAE7D1F80480142200216170A01824
:102A10000AF042FA0E4B1B89B3F5FF7F0FD25A081A
:102A20009B1A9BB208EB0301C4F804802384A160C5
:102A30006284C4F80C80A3842161E284ADE7B3F51D
:102A4000EE6F4FF0FF02EBD940F27263EAE700BF8E
:102A5000E80D0020134B012200214FF0FF309A6057
:102A6000C3F80012C3F80803C3F80015C3F804251F
:102A70009A60C3F80803C3F80015C3F804250A498F
:102A80000A4A03F580334FF40040C3F80825C1F823
:102A90008000BFF34F8FBFF36F8FC1F88001C3F881
:102AA0000825704700F0004000E100E00000F63F1C
:102AB0000A46192302F8033B0448C368C1F80330EF
:102AC0000369536043699360704700BFF40D0020B1
:102AD000024B5A8C02435A845B6A1847F40D00205B
:102AE000014B00215B6A1847F40D002010B5154C0E
:102AF00005F0AAFF05F0EEFA208DFFF7F1FF237E27
:102B000063B12246104952F80C3BE360636853609E
:102B100004F11900A36893600CF01DFA0B4B228D91
:102B200093E8030002F090FE236B188802F012FE77
:102B3000A36B94F8341094F835009847002384F878
:102B40003C3010BDF40D0020B12A0000200E002002
:102B5000034B93F83C300BB1FFF7C8BF704700BF81
:102B6000F40D002070B51E4C256B636C95F88C201D
:102B7000236494F8483095F86910064603EB820008
:102B80002EB9FF2803D195F868308B4201D005F0AB
:102B9000E3FD95F88C30E3B1E06C05F0F5FF01231F
:102BA00084F86830D5F8E8302366E16CD5F8EC306D
:102BB000206C636605F06AFA16B9304606F034F800
:102BC00095F86810002006F083F8022384F83C3062
:102BD00070BD206C05F0D8FF05F07CFAECE700BF73
:102BE000F40D002008B5094B93F83C20022A04D0CC
:102BF00040F24F212720FFF7CDF9DA7A42F00102A7
:102C0000DA72BDE80840FFF771BF00BFF40D002085
:102C1000032810B50A4B044605D15A6FD278022A10
:102C200001D1002010BD986F0AF084FD0028F9D171
:102C3000032CF6D001F0DCFA80F00100C0B2F1E71D
:102C4000F40D00202DE9F043484C94F83C30012B62
:102C500085B005468846DFB204D040F204512720F3
:102C6000FFF798F9266B616F02A80AF096FF96F8B5
:102C70007C309DF808903BB1002186F87C10042040
:102C8000FFF726FF86F87E70B9F1030F27D0BDF855
:102C90000C30002B18BF022796F88C3086F8827013
:102CA000BBB1236BD6F8E82093F8690022660127B0
:102CB000D6F8EC20626684F868700AF08BFF94F80E
:102CC00048902B4900220346009238464A4605F0B8
:102CD00059F96DB105B0BDE8F043FFF707BF96F8AD
:102CE00082301BB9616F0220FFF7F2FE0327D3E7A2
:102CF000B8F1000FEED0E36F284698470028E9D0DE
:102D000094F83430002BE5D194F8803023B194F856
:102D10008100FFF77DFF0546606C0CF091F8D4F858
:102D20008430B3B9B4F88830B3FA83F35B09628CAA
:102D3000910710D5626F137803F00303032BC9D1F9
:102D4000D378022BC6D1002005B0BDE8F043FFF7D1
:102D500009BF0123EBE7002ABCD1012814BF0023DF
:102D600003F001032B43EED1B4E700BFF40D0020C4
:102D7000440E002010B5094CD4F8843023B940F239
:102D8000F6412720FFF706F9B4F88820216C0332BA
:102D900018460AF0C1F8206410BD00BFF40D0020F1
:102DA00010B5064B93F83C2002F0FF0422B91C76C4
:102DB00002F042FD204610BD0C24FBE7F40D00207C
:102DC0000A4B0B4A70B506460D461A60FFF7E8FF3E
:102DD00018B1F4212720FFF7DDF8064C012104F19A
:102DE0008A000CF01DF86664E56470BD48000020A0
:102DF000FC350000F40D0020024B012283F88D20E9
:102E0000704700BFF40D0020F0B5794C85B002AEDC
:102E100086E8030094F83C100A9F01F0FF0511B901
:102E20000AB103B127B940F283112720FFF7B2F8A6
:102E300096E8030004F12C0C8CE8030084F88D5014
:102E400084F8345084F88E5084F8355084F88F50CC
:102E500084F8905065842585256BE3676262A763DB
:102E600005F0BEFC05F036F995F9700005F042FD5D
:102E70006E6AE86905F044FD304605F077FE95F886
:102E80009C0005F047FD236B93F89F310BB105F0D3
:102E900095FC0CF014FC95F8692000F179010120F3
:102EA00005F0BEFD534B186805F066FE2B69A3675D
:102EB000514A6B69C4F8943005F5807105F1F0034F
:102EC00053F8040B42F8040B8B42F9D1D5F80021DA
:102ED000C4F869205A68494B5A60236B93F88620DE
:102EE00093F86860A2F12501012903D993F88710AE
:102EF00025295FD193F83E322BB1012E03D0012B4F
:102F00000CBF0126022605F13007314638460CF089
:102F1000B2F831460BF0D8FDAB8F95F869108342BB
:102F200028BF0346384684F898300CF08DF895F8A1
:102F3000691095F88C70B5F84460042908BF032126
:102F40000BF0C2FD0FB9043080B2864228BF06469E
:102F500095F88C30F6B284F8996084F84860A3B193
:102F6000D5F8E83095F8690023660127D5F8EC30EC
:102F7000636684F868700AF02DFE00220346009212
:102F80001D493246384604F0FDFF0120FFF7EAFDF7
:102F9000002323606360A360B5F8803063802B88D2
:102FA000238095F89C302371EB6E0BB101221A60DF
:102FB00005B0F0BD203A012A0DD823290DD093F891
:102FC000263113F0010202D19B079CD50222012E6B
:102FD00018BF164697E7232905D193F8262193F8C1
:102FE00061301340EDE7032E08BF04268BE700BFD6
:102FF000F40D002048000020440E00205D0E00204B
:1030000008B50C4B93F83C201AB9BDE80840FFF70F
:103010006DBD93F83C20022A04D040F231212720D4
:10302000FEF7B8FF1B6BD3F8B001BDE8084005F010
:10303000C7BD00BFF40D0020014B1876704700BFDC
:10304000F40D0020014B93F88F007047F40D002021
:10305000024B93F82900C0F3C0007047F40D002024
:10306000014B93F88E007047F40D00202DE9F043DA
:10307000314D85B004460F4602A8296C2E6B0AF02C
:103080008CFD14F00109BDF80C8004F0020428D076
:10309000002385F89A3094B1FFF76CFE0DF102021F
:1030A00001A9D5F894000AF0F1FB01980AF0D4FBCD
:1030B000012238604146D5F894000AF07CFBB9F152
:1030C000000F0BD0D6E93A32013342F10002C6E9D3
:1030D0003A3296F88430013386F8843005B0BDE882
:1030E000F08395F89A30032B20D801A252F823F0F0
:1030F00097300000013100001B3100001B3100003F
:10310000002CEBD0FFF736FED5F8940000224146A4
:1031100005B0BDE8F0430AF04EBB002CDED0D5F878
:10312000940005B0BDE8F0430AF0ACBB40F2A24108
:103130002720FEF72FFF00BFF40D00202DE9F04FF0
:10314000A94C002389B0CDE9043394F83C30266BB8
:10315000022B8046894604D040F28B512720FEF78F
:1031600019FF216C06A80AF018FD96F88C30B8F10A
:10317000000F00F028819DF819B0BDF81C70002BDD
:1031800039D004F0BFFFB0BB6FB196F8843003F0C4
:1031900001035B450BD1012384F83530FFF7A6FC12
:1031A00009B0BDE8F08FA4F88870002006E0A4F80C
:1031B0008870D4F8940039460AF0DDFA238D9DF822
:1031C0001A20C4F8840043F40073238596F88330F2
:1031D00003F001039A4263D0256B95F88230002BEF
:1031E0003DD0022B13D1A06F04A90AF06DFA38B9B3
:1031F00040F23B41B2E7A4F88870002FD5D0D8E761
:10320000D5E93832013342F10002C5E9383295F888
:103210007E30002185F8821023B185F87E101020C1
:10322000FFF756FC95F87D30A3B14FF0000A85F802
:103230007DA000F0C7FF10B940F252418EE7514621
:103240000820FFF745FCD5E93832013342F100028E
:10325000C5E9383295F88330013385F88330238D02
:1032600043F4006323854FF0000A96F8843003F09E
:1032700001035B4544D19DF81830256B022B11D812
:10328000EBB995F88430013385F88430002F37D0BE
:10329000D5E93A32013342F10002C5E93A322FE072
:1032A000C246E2E7032BECD1238D216C012043F4CD
:1032B000805385F87C002385FFF70AFCE1E7002FA7
:1032C000DFD0238D95F88C5043F48053238505F08F
:1032D000F5F9042894F8993006D1002D0CBF1F226F
:1032E0001B22934228BF1346BB4262D3D4F88430DA
:1032F00033B194F88D30002B74D02020FFF7F0FB11
:10330000002796F88B309BB1D6F8E03096F868002D
:1033100023660025D6F8E430636684F868500AF026
:1033200059FC324900950346FB22284604F02AFE48
:10333000B9F1000F5CD1638C94F88E10180708D592
:10334000626F137803F00303032B02D1D378022BAF
:103350004ED001294CD8E36F01209847002847D070
:1033600094F83430002B43D11FB105A90120FFF799
:103370007DFE256B002395F88C208DF80D3094F898
:10338000483095F8681003EB8203FF2B03D195F8C2
:1033900069308B4202D0FF2005F0DEF995F88230CB
:1033A000032B00F21781DFE813F07A00A500FC0080
:1033B0000D0194F83430012043F0100384F83430C8
:1033C00007F006FD9CE70BB104F0D8FE94F88E30B0
:1033D000013384F88E30238D002743F480632385E6
:1033E000BA468EE747468CE7F40D0020440E0020D5
:1033F00005F07AFC002F4DD14FF00109238D5A06BC
:1034000006D44020FFF76CFB238D43F04003238557
:10341000BAF1000F0DD0B4F80720B4F8053013430B
:10342000B6F8802013431EBFB4F809300133A4F866
:103430000930B8F1000F00F0D580B4F80530013341
:10344000A4F80530002384F88E30694802F070F942
:10345000049830B10AF000FA216B0022027201F0E8
:1034600027FD059B33B1216B00221A720C220598AF
:1034700001F0ECFCB9F1000F7FF490AE238D1B0638
:103480003FF58EAE8020FFF72BFB238D43F08003AA
:10349000238585E605A90320FFF7E8FDACE794F84E
:1034A0009830ADF80E305348A5F8583000F07AFE49
:1034B00028B1012385F87D3084F890301CE0A06F9E
:1034C0000DF10D020DF10E010AF0D9F8606788B117
:1034D00095F8C73073B99DF80D302BB90380837010
:1034E000606F01210BF09CFC636FBDF80E205A70D9
:1034F0000123E1E7404B6367D4F874B095F883206B
:103500009BF80000D20002F0080200F0F30313431E
:1035100095F88420920002F0040213438BF80030E7
:1035200000F00300FFF774FB9BF8003023F010035A
:1035300043EA00138BF8003095F88B30606F002B56
:103540004BD04378002B48D0E06C05F01DFB0023E6
:1035500084F86830D5F8E0302366616FD5F8E43040
:10356000E06C636604F058FD95F86910012005F0E1
:10357000AFFB0125606F84F88F500BF061FC636F27
:1035800084F880001B7884F83C5003F0030384F82F
:103590008130002F3FF432AF05A90220FFF766FD0E
:1035A0002CE7B5F85830A06FADF80E300DF10D02D4
:1035B0000DF10E010AF063F86067002898D140F21F
:1035C000F121CBE50B4800F0EDFD002890D140F251
:1035D000FB21C3E540F20931C0E505F0D5FA04F05E
:1035E00079FDC1E7B4F807300133A4F807302CE7C0
:1035F000200E0020680E00207E0E0020E52B00002B
:103600003D310000452C0000512B0000F0B5070CA7
:10361000A7F5AA42144B543A012A03EA90231FD972
:1036200027F4004042F6AA22801A18BF0120002287
:10363000162116461F2487EA060562EA05050135AC
:1036400010D0DD03ADB245EA5606E503ADB201394F
:1036500045EA52024FEA53034FEA5404EBD1F0BD5E
:103660000020E4E70020FAE7E0FF3F00304BF0B530
:103670005A88B0F85C70B0F85A609D88974228BFAD
:103680001746964228BF16461B2E85B00C462ED0F4
:10369000B5F5A47F2DD040F648039D4201A928BF6F
:1036A0001D460AF0FCFABDF80A30BB4228BF3B4673
:1036B000E380BDF80C30AB4228BF2B462381BDF818
:1036C0000630B34228BF33466380BDF80830AB42B2
:1036D00028BF2B46A380FF232370E3881B3B9BB2AC
:1036E000E02B08D940F2F5613920FEF753FC1B2F7F
:1036F000CED105B0F0BD63881B3B9BB2E02B02D955
:1037000040F2F761F0E72389A3F5A4739BB2B3F508
:10371000E06F02D940F2F961E6E7A388A3F5A4734C
:103720009BB2B3F5E06FE4D940F2FB61DCE700BF88
:10373000900E002010B501210020FEF7E9FF04469D
:1037400070B90121FEF7A8FF044620B940F2933179
:103750003920FEF71FFC034B93F906100CF05EFABC
:10376000204610BD900E002008B50BF015F900F0B2
:10377000E5FE00F0A7FB0BF0C6FB02F047F801F0F6
:1037800049F9094B00221A60084B1B214FF4A47021
:1037900098801A805980064B064818605A829A759C
:1037A00099805A749A8208BD4C000020900E002027
:1037B000BC12002003021B00044B41F64C52C3E92B
:1037C00002221B221A74FFF7CFBF00BFBC120020D9
:1037D00073B5244DAB680363234B836104460CF03F
:1037E000D8F8064600F05EFB830654BF1B236B88A7
:1037F000A4F85A3058BF1A461C4B297C1B6848BF96
:10380000AA88A4F85C2084F8381066871BB194F964
:10381000701020889847164E204631460BF076F9F6
:1038200001236A886978E385AB88019116F8121C38
:103830000091033303329BB292B204F1140104F1FC
:103840001000FEF7D7FF236923B940F2CC6139207D
:10385000FEF7A0FB636913B940F2CD61F7E70020E2
:1038600002B070BDBC12002000093D0050000020D5
:10387000CE120020F7B504460D460CF002FA0028DF
:103880006DD020460CF0D9FA38B1B5F80130013BC3
:103890007F2B02D9122003B0F0BD20460CF0D1FAE4
:1038A00008B90C20F7E720460CF069F90028F8D198
:1038B00020460CF0A4F906460028F2D1204603F079
:1038C0009DF90028E6D0B5F80170E97842F210734E
:1038D00020465F430CF09DFA20460CF0A6FA014604
:1038E00048B93A46204602F039FBB0B341F6A5414B
:1038F0003920FEF74FFB31460DF10600FEF794FE2E
:10390000054608B90D20C6E7314600F0D1FFBDF8E5
:1039100006302B80204629460CF09DFA20460CF0FC
:1039200096FA88B9216A20460CF093FA0146284697
:10393000FFF74EFF3A462946204602F00FFB0246AB
:1039400020B141F6C841D3E70121F0E7054B9B6860
:103950001BB105F58D712846984700209BE7422052
:1039600099E700BF900E0020024B1B6803B1184777
:103970000C2070474C000020034B5A8802801B78B3
:1039800083700020704700BFBC12002037B58378D9
:103990001A2B054608D8042B04D9144A22FA03F33B
:1039A000DB0705D412241AE0292B01D03B2BF9D1D7
:1039B0002888B0F5706FF5D269460BF03CF888B9ED
:1039C000019B93F8182102F0FF046AB9AA7883F8E2
:1039D0001921FF2283F8182168460BF06FFA204660
:1039E00003B030BD0224FAE70C24F8E720003804C5
:1039F0000188A1F11B039BB2E02B0CD84288A2F5F1
:103A0000A4739BB244F24810834204D8034B0020B5
:103A100059809A8070471220704700BF900E002096
:103A2000034B5A889B88028043800020704700BF68
:103A3000900E002038B50278447802F0010354EA71
:103A4000030102F0020201D1112038BDBAB9857814
:103A5000002DF9D0002B18BF002400E01D462046A1
:103A60000AF0C8F80028EFD028460AF0C3F800286A
:103A7000EAD0054B00209C74DD749882E5E7002BAA
:103A8000ECD000242546EAE7BC12002013B50088DC
:103A900069460AF0D0FF18B10224204602B010BDDA
:103AA000019A92F8DC31DBB292F8A820002AF3D117
:103AB00013F0FB0FF0D0019890F82A310BB13A24A3
:103AC000EBE790F8D23003F0FF04002BF7D190F829
:103AD000C9309B0706D1FF2380F82A3168460BF0D6
:103AE000EDF9DAE70249CA300BF035FAD5E700BF45
:103AF00031F60000F7B50778EF2F05460C460FD8D2
:103B000090F901204378002A0ADB8278900707D1D8
:103B100013F010001DD1990603F0030202D51AB16B
:103B2000122442E0032AFBD01E07F9D42979EA784F
:103B3000EE7942EA0122697942EA0142A97941EA31
:103B400006212E7A41EA06418A42E9D81F2A0FD877
:103B5000E6E713F0600FE3D103F00702052A05D072
:103B600003F00F010D22CA40D107D9D51A07DDD5C0
:103B70006A7A013A062AD3D8AA7A032AD0D813F04F
:103B8000040102D1023A012A03D8EA7A012AC7D8ED
:103B900011B9AA7C032AC3D82A7D48B1012ABFD112
:103BA0002A7E012ABCD830B91124204603B0F0BDCA
:103BB000022AF5D1B4E7DB0712D46B782A7D03F033
:103BC0001803082B11D1022AEED101213846FEF745
:103BD0009FFD064678B10BF0D2FFB8B10C24E4E7A4
:103BE00000F024F90028E8D1DEE7022AEDD02B7F8F
:103BF000002BEAD0D8E701213846FEF74DFD0646F6
:103C000040B3154B93F906100CF008F830460CF051
:103C100009F929462070E87430460CF04EF8EB7E26
:103C20000446002BC1D00028BFD1316B0246684644
:103C3000FEF7A8FE306B2246012109F0F3FE316B3E
:103C400068460422FEF79EFE306B2246214609F0AC
:103C5000E9FEAAE70724A8E7900E002030B5027914
:103C6000042A8BB003464FD84088B0F5804F4BD81C
:103C700026498D5C114400244A79ADF8004042F099
:103C8000100242EA45028D7AC97B8DF8084042EA6B
:103C9000850242EAC10202F01F028DF80020BDF841
:103CA0000020ADF809201A888DF80B208DF80E0041
:103CB000120A000A8DF80C208DF80D408DF80F00C7
:103CC0008DF810405A7B8DF811205A798DF812200A
:103CD0009A79D3F807008DF81320B3F80B209B7B5B
:103CE0008DF81A307F2305908DF81B3069464FF010
:103CF000011302A8CDE90734ADF818208DF824404F
:103D0000FFF7F8FE0BB030BD1220FBE700C8020041
:103D10000278034672B1427862B142881A2A09D900
:103D200082881A2A06D9044A006810609B8893800A
:103D30000020704712207047BC120020024B02681E
:103D40009A600020704700BFBC1200200378A3F1E6
:103D50000A02112A9DBF024A0020137412207047E4
:103D6000BC12002008B5052000F090F804F05AF8C5
:103D7000014B024A9A6008BD900E00206D3600008B
:103D800008B502F023FF02F0D5F9BDE8084001486C
:103D900002F006BF9C0E002010B50B4A012314460A
:103DA00082F8023102F01AFF0CF0FDF90AF0F2FD80
:103DB00004F203112046FFF703F8002009F0CEFDBE
:103DC000BDE8104001F028B89C0E002010B5064C4C
:103DD000064904F502700AF09DFC04F503700449DD
:103DE000BDE810400AF096BC9C0E00205400002054
:103DF0005C00002010B5094C094904F502700AF076
:103E000089FC04F5037007490AF084FC04F504708A
:103E10000549BDE810400AF07DBC00BF9C0E0020A3
:103E2000640000206C00002074000020014B93F817
:103E3000020170479C0E002010B5074C00F0C8FF2F
:103E4000D4F808020AF05EFCFFF7B6FC01F0F6F8C1
:103E5000012384F8143210BD9C0E0020014B93F80E
:103E6000140270479C0E002010B5074CD4F80C02C9
:103E70000AF048FCD4F810020AF044FCFFF774FC86
:103E8000002384F8143210BD9C0E0020C20804499F
:103E900000F0070001238340885C03438B54704784
:103EA00010000020014BD3E90001704710000020F2
:103EB000034B1868C0F30020400040F00100704739
:103EC0001000002008B508F0E3F8084A002332F893
:103ED0002310814205D302EB83029378044A1370C6
:103EE00008BD01330C2BF2D10023F7E714C8020000
:103EF000B110002010B544682388A4F8683194F804
:103F0000683084F86711012B06D0022B04D04FF4DF
:103F100061710620FEF73EF884F86A3194F8693042
:103F2000012B01D0022BF2D184F86B31044904F546
:103F3000AF700BF010F8002384F8243110BD00BFDF
:103F40008FE70000406808490388A0F85A3190F8CC
:103F5000603080F85C3190F8613080F85D3100F2BB
:103F600051100AF0F2BF00BFA5E700002DE9F043B1
:103F70008946097999F80580456801F0070108F03C
:103F800007084B1E08F1FF3202EA08020B401343F8
:103F900095F8872095F88660232A85B004463BD1A2
:103FA00005F18707FBB940460AF03DFC00283DD0EB
:103FB00095F86830984239D095F8262118EA020F12
:103FC00011D0212E32D095F8612018EA020F2DD1A0
:103FD0000138013B4D4AC0B2DBB2032B105C20D844
:103FE000D35C834222D995F82431012B53D11E2171
:103FF0002046FFF77FFF212E51D16368182283F8F6
:104000000921092283F8862093F8C230002B3ED183
:104010004FF43171AE2007E0212E75D105F18607EE
:10402000C0E74FF40F710620FDF7B4FF08460AF011
:10403000FAFB38B195F86930834203D095F82731FF
:104040001942D0D0B9F8066003AB00932846334636
:1040500042460AF0F5FB6368054678BB93F82421D5
:10406000012A28D101462046FFF744FF3D706368CE
:1040700003F18702974202D1002283F88720636808
:1040800003F1870297423BD120460BF080F80020D5
:1040900005B0BDE8F083002385F82431ABE70023A9
:1040A00020463B700BF073F81821204605B0BDE8A0
:1040B000F0430BF094B883F82401D8E7B3F88020DC
:1040C000A3F83C62013EB61AB6B247F6FD729642BC
:1040D00006D9282283F8A920204601F027F9CEE747
:1040E00093F887200D2A02D00A3A012A01D82A2201
:1040F000F0E7BDF80C20A3F83E2225233B70BEE775
:10410000002283F8C220C2E70220C1E744C80200AF
:10411000044B002283F822204FF6FF729A84DA843F
:104120001A857047B2100020054B9A8C824201BF5D
:10413000002283F822204FF6FF729A84704700BF56
:10414000B2100020014BD884704700BFB21000208D
:10415000084B998C4FF6FF72914206D193F82220BA
:10416000012A04D00360012070470023036000206F
:10417000704700BFB2100020064B93F82220012A9E
:104180001FBF0120DA8C83F822009A8408BF002028
:10419000704700BFB2100020014B1885704700BF68
:1041A000B2100020064B0246198D988C884205D12A
:1041B00093F8220018B11360012070470020704767
:1041C000B2100020094B998C1A8D914201D0002029
:1041D00070474FF6FF729A8493F82220002AF6D097
:1041E000002283F822200120704700BFB210002077
:1041F000054B998C1A8D914203BF93F82200B0FAB7
:1042000080F0400901207047B210002050B90A4ADE
:104210001346012003F8010B0868C2F801008A88E0
:104220009A807047012805D1034B0A689A608A88F2
:10423000D8719A81704700BFDC10002050B90B4B39
:10424000187888B1D3F80120B3F805300A608B8064
:1042500001207047012806D1044BD87920B19A6813
:104260000A609B89F3E70020704700BFDC10002044
:1042700010B9044B18787047012806BF014BD87954
:1042800000207047DC100020F7B500238A888DF8E5
:104290000600ADF8042008680B4A8DF80730019D30
:1042A0001478014602F5A872D8B2844201D80820D9
:1042B00008E052F8087F5668AE4208BF8F4203F10B
:1042C0000103F1D103B0F0BDF010002030B5094B6F
:1042D00001465C78002203F20113D0B2844201D877
:1042E000082005E013F8015F8D4202F10102F4D1CC
:1042F00030BD00BFF0100020F8B52D4C6378013BB5
:10430000DBB22218834292F80251637030D01A0156
:104310000101961C8F1C2644274406F1100C56F808
:1043200004EB47F804EB6645F9D18232823122442E
:10433000214402F1100652F8047B41F8047BB2429A
:10434000F9D1E118221891F8026182F8026106267B
:104350007343704303F5857300F58570E618E358E1
:1043600023502718B388BB8091F83A3182F83A314C
:104370002846FFF7ABFF082818D12378013BDBB2B2
:104380009D42237012D02B3304EBC30393E8030048
:1043900005F12B0204EBC20282E803002078FFF74C
:1043A00095FF08281CBF241884F80251F8BD00BFEF
:1043B000F0100020F0B5254D95F8984189B02246BF
:1043C00005F29911684608F0A7FD214668460AF0F3
:1043D00002FB0446B8B300EB4001C9B202A8FDF7E6
:1043E0001FFF631E95F8A161DBB2012495F89811B7
:1043F00005E0721CB2FBF1F001FB1022D6B206F10F
:1044000020020DEB020010F8202C002AF1D103EB62
:1044100043012031694406EB46022A4411F8187C16
:1044200082F8A27111F8177C11F8161C82F8A3719A
:1044300082F8A41100F8204C013BAA19DBB2FF2B33
:1044400082F89941D2D109B0F0BD00BFF010002030
:1044500070B5064688B00C46002A4ED0294A92F81C
:10446000A131D01890F8991119B9FF212820FDF732
:1044700091FD03EB43011144013391F8A251E57022
:1044800091F8A35191F8A41161710021257180F870
:10449000991192F89811B3FBF1F001FB103382F8F7
:1044A000A13192F8C23123B9174902F5DD700AF043
:1044B0004FFD657905F03F0545F0400565710D221A
:1044C0000021684608F0E8FCE3788DF80F30237986
:1044D0008DF80E3004AA0423694630468DF80D503D
:1044E00008F038FB9DF81F3023709DF81E30637074
:1044F0009DF81D30A37008B070BD03216018FDF752
:104500008FFED6E7F0100020B5430000044B5A7828
:10451000824286BF1B1893F84A010020704700BFF3
:10452000F0100020044B5A78824286BF1B1893F883
:1045300042010020704700BFF0100020064B00220F
:104540004FF461711A8083F8C32183F8C421A3F862
:10455000C61183F8C2217047F01000202DE9F04702
:104560008246894617469846FFF78EFE082805467C
:10457000064603D0FFF7AAFE082860D1324C6378C4
:10458000072B5ED8082D15D12678731C072E2370B3
:1045900003D96C212820FDF7FDFC06F12B02D9F888
:1045A000000044F8320004EBC203B9F804209A80FA
:1045B00083F806A065786B1C290163704B1C07F11A
:1045C0001002234412F8010D03F8010FBA42F9D189
:1045D000813108F11003214413F8012D01F8012F56
:1045E0009845F9D1102140460AF032FA25441021AD
:1045F00085F8420138460AF02BFA85F802616678A0
:1046000085F84A010023114885F83A3131460AF00D
:10461000E2F90128054607D80D4831460AF0DBF9D2
:10462000002818BF0135EDB284F8985100252846BE
:1046300084F8A151FFF7BEFE2846BDE8F08712209E
:10464000FBE70720F9E700BFF0100020321200203E
:104650003A12002010B5064B5878013840B20028B5
:1046600000DA10BDC4B22046FFF746FE601EF5E733
:10467000F0100020014B83F8C3017047F0100020B8
:10468000014B93F8C3017047F0100020431E9BB20A
:104690004AF2B71293429DBF024BA3F8C601012014
:1046A00000207047F0100020014BB3F8C60170479E
:1046B000F010002030B50A4B5C7884420ED91844C3
:1046C00090F802012B3003EBC004A5790D7053F86C
:1046D00030001060A3889380012030BD0020FCE7EB
:1046E000F01000200246074810B590F8C34124B1ED
:1046F000417821B1023003F0BBFB204610BD0C46CF
:10470000FBE700BFF01000202DE9F74F2F4C9A4631
:10471000637883428046894656D9231893F84251DC
:1047200085F00105F9B193F84A31E3B945F0020784
:104730000135BAF1000F18D1FA070AD5062101FB9D
:10474000084104EB0810524601F585718230FFF7ED
:104750007FFEBB0734D504EB0810524649460230B1
:10476000FFF776FE2CE02F46E3E794F8A1614FF0C7
:10477000010B002DE0D0A319019393F8991199B979
:104780000092DAB100F02AFC06EB46012144019BBD
:1047900081F8A2014FEA102C009A81F8A3C1000C05
:1047A00081F8A40183F899B194F898310136B6FBE9
:1047B000F3F103FB1166F6B2013DDAE747F00407B7
:1047C000384603B0BDE8F08F0027F9E7F01000206D
:1047D000074B5A78824209D91A1892F842212AB90D
:1047E000062202FB003000F58570704700207047FC
:1047F000F0100020064B5A78824281BF1B1893F8B4
:104800003A01B0FA80F0400998BF0020704700BF1D
:10481000F0100020F8B50E46074606213046154632
:104820000AF016F9044670B10C4B0022587803F2D6
:104830003913D1B2884202D801242046F8BD03F8CA
:10484000015F0132F5E7314638460AF0E0F8082802
:10485000F3D0024B034483F83A51EDE7F010002007
:1048600030B50024A0F84040B0F8444042F2107542
:104870004C43B4FBF2F4A0F84440541E05FB034340
:10488000B3FBF2F3A0F84230084BB3FBF2F3013371
:10489000A0F84830838F05FB0344436BB4FBF2F46C
:1048A00059438463B1FBF2F1416330BD005A6202A7
:1048B00070B504460D4659BB4FF41A7208F0ECFA75
:1048C000012384F88E306FF0360384F8D930042346
:1048D00084F8DA306FF03B0384F8DB306F2384F820
:1048E000DC306FF03C0384F8DD306FF07F0384F838
:1048F000DF302B2384F8D830FE2384F80E317F2359
:1049000084F88530202384F8DE5084F8F73170BDB8
:10491000012923D10023A0F8B43180F8AB3182699A
:1049200040F6B833A0F8B4301146438C7830FFF726
:1049300097FF104B1B68062B01D001330CD10E4B97
:104940001B68063B083307D9E069FEF75FFE18B91C
:10495000012384F89F31DAE70023FAE70229D6D150
:10496000B0F84A32D0F844228169BDE8704078300E
:10497000FFF776BF181600201C160020034B80F8A6
:1049800070101B680BB10088184770477C0000202E
:104990000B2808B504D940F2C7112920FDF7FAFA0F
:1049A000014B33F8100008BD48C80200074B93F9CB
:1049B00000301844142804DC10F17F0F03DB40B2F0
:1049C0007047142070476FF07E007047B8120020C7
:1049D00007B57F230DF107008DF8073004F060F96B
:1049E00003469DF9070053B1094B5B785B4240FADF
:1049F00083F0142806DC10F17F0F05DB40B203B012
:104A00005DF804FB1420FAE76FF07E00F7E700BFC3
:104A1000B8120020024B00221A705A70704700BF73
:104A2000B81200200346407898B1DB783F2B05D8B8
:104A3000084AD35C1B1A58425841704703F10C02D4
:104A4000D2B2042A04D8034A134413F8B43CF1E761
:104A50000120704760C802003F2908B5C17003D823
:104A60000B4B5B5C437008BD01F10C03DBB2042B04
:104A700004D8074B0B4413F8B43CF3E7FF2904D0E8
:104A800040F23A412A20FDF785FA0123EAE700BF08
:104A900060C802002DE9F3478946694615469846E5
:104AA00009F0C9FF044620B9019E35B9012386F8F3
:104AB0008D30012002B0BDE8F087376929463846BD
:104AC00008F087FD01460028F4D0164B5B88AB4206
:104AD00025D3384608F0BCFE96F88D300480002BB4
:104AE0000CBF49460221824684700AF099F941467A
:104AF0002A460AF1030008F00FFA2946384608F062
:104B0000A3FD18B97E212B20FDF744FA68460AF070
:104B1000D5F9019BA3F8A24186F88D40C9E720464C
:104B2000C8E700BFBC120020024B987DC04300F0D4
:104B300001007047BC120020044B987DC0F3400078
:104B400080F0010000F00100704700BFBC1200209F
:104B500083230B70014B1B78CB707047D41200205D
:104B60002DE9F84FD0F80480D8F8146030460D468F
:104B700008F060FE044618B9FF211020FDF70AFA7C
:104B80000146304608F064FEB4F800B01FFA8BF915
:104B90008246B9F1000F02D140F20311EDE71E4B3E
:104BA0001B68C71C8BB9B8F80030AB8000236B7250
:104BB000A5F806B09AF8003003F00303012B0FD0DC
:104BC000022B0DD040F21D11D7E7B8F800004A467D
:104BD0003946984704460028E5D12046BDE8F88FBD
:104BE0002B72304608F03AFE044610B94FF4937128
:104BF000C3E7B9F1FB0F02D940F23511BDE72868D0
:104C000010B94FF49B71B8E74A46394608F084F969
:104C1000304608F07EFDE0E7800000202DE9F347F4
:104C2000DFF850818246894605270026D9F81030E2
:104C300053B11B7A1BB980211020FDF7ABF9D9F8CD
:104C40001040B4B9002071E0D9F80440237A012B58
:104C5000F8D0EFF3108372B6D9F804201268C9F8BF
:104C6000042003B962B6C9F81040237A0BB9A62113
:104C7000E2E7257AEDB227726B1E0B2B6AD8DFE8CC
:104C800003F066061C3463693D69696969586368A5
:104C900013B94FF4D771CFE7204651469847042007
:104CA000EFF3108272B6237A052BD9B25CD126724B
:104CB000C9F81060B2B962B614E0636813B940F283
:104CC000B711B9E75146204698470346C3F3072377
:104CD000012BADF80400C0B23FD0022BE0D100237D
:104CE000C9F810300028A1D020E0636813B940F261
:104CF000BF11A1E7204698470020D1E763680BB9B0
:104D0000B52199E70B228AF8002019881869AAF8BA
:104D10000310012200248AF802208AF805208AF86C
:104D2000064008F0F6FCC9F81040042002B0BDE8C7
:104D3000F087D8F80030514620469847034660B1C6
:104D4000C9F810600220F1E74FF4FB7174E740F2FC
:104D5000F91171E74FF4FE716EE725720028E5D175
:104D6000002B7FF463AF6DE711B940F21D2163E7BB
:104D700000209FE78400002038B5134C1422002146
:104D8000201D08F089F801252574142204F1080378
:104D9000002104F11800C4E9013308F07DF884F81B
:104DA000245004F11C03C4E90633084A0023E362DB
:104DB000236384F83430C4F83530C4F8393084F8CB
:104DC0003D30136038BD00BFD412002080000020A9
:104DD00010B5084C2378FF2B04D04FF4A07110209D
:104DE000FDF7D8F807F0FCFE2070BDE81040FFF793
:104DF000C3BF00BF1D00002010B5034C207807F092
:104E000009FFFF23237010BD1D000020014B1878FF
:104E100007F010BF1D000020014B024A1A607047C6
:104E200084000020614B000010B506490446FFF7DE
:104E3000F5FE28B920460449BDE81040FFF7EEBE54
:104E400010BD00BFEC120020D812002010B5134690
:104E5000027A22B140F299211020FDF79BF80A4610
:104E6000BDE81040014601480AF04FB8D8120020B2
:104E7000044890F834301BB903492C300AF062B86A
:104E8000704700BFD4120020FDEE00000346064824
:104E900090F83E203AB190F83D2022B900F8353B19
:104EA00002490AF04FB87047D4120020514B00005D
:104EB00010B50A46037A23B140F2A1211020FDF774
:104EC00069F80146BDE81040014807230AF01DB803
:104ED000EC1200201346027A0AB1037270470A46A8
:104EE000014601480AF011B8D81200201B234FF0E8
:104EF0001B128384038482618382C260038539B973
:104F00004FF4A473034AC3844384C261C382026121
:104F1000704700BF480148010346F0B4B3F854207D
:104F2000B3F84840B3F84460DF8FB3F8425094427E
:104F300028BF14460846B3F84C20B3F85610DC8757
:104F40008A4228BF0A46B3F84610A3F8422091428D
:104F500038BF1146A64238BF2646A742A3F8446090
:104F6000A3F846101FD1AA1A18BF0122B3F84A505D
:104F7000B3F85040B3F852709E8FB3F84010A5427A
:104F800028BF2546B3F84E409D87BC4228BF3C460B
:104F9000AE42A3F8404002D1A14200D12AB1F0BCF8
:104FA000034909F0D8BF0122E0E7F0BC704700BF19
:104FB0005DEF00000B8BA2F80B304B8BA2F80D308D
:104FC0008B8BA2F80F30CB8BA2F809000249A2F814
:104FD0001130104609F0B9BFADEF0000094AD2E91F
:104FE0000003434083EAB01181EA43214FEAF343CF
:104FF0005360054B116058434FEAF06000EB8000AE
:10500000704700BF14130020BB79379E094AD2E9CC
:105010000003434083EAB01181EA43214FEAF3439E
:105020005360054B116058434FEAF06000EB80007D
:10503000704700BF20000020BB79379E10B50A4C96
:1050400009480821FDF7ECF8D4E900321343F7D002
:10505000064CFFF7DBFF2060FFF7D8FF2368606096
:105060001843F6D010BD00BF20000020141300200C
:10507000174B184A9A60184A5A60184A1A60184A18
:105080009A62184ADA62184ADA60184A9A61184A2B
:105090001A63184A1A62184ADA64184A9A64184A53
:1050A0005A62184B184A9A60184A5A62184ADA62C9
:1050B000184A1A61184A5A61184A9A61184A1A63BA
:1050C000184A9A64184ADA64184A9A63704700BF0B
:1050D0008800002073F20000A3F200000FF300002C
:1050E00075F40000C9F4000055540000DFF400001E
:1050F0009956000039550000ADF50000C9F50000D3
:10510000815500009C0100208FF200007FF5000017
:1051100001F50000A5F4000025F50000D9540000B9
:105120004FF60000F7F50000E9F5000065F5000016
:10513000044B054A5A65054B054A1A65054A5A65E6
:10514000704700BF88000020C3F300009C010020CE
:10515000A9F3000021F40000054B064A9A65064AAF
:105160001A66064B064A9A65064ADA65704700BF1A
:1051700088000020C3E800006D3F00009C01002073
:105180000DE8000075E90000252A034610B5084621
:1051900018D8012A19D9023A232A16D8DFE802F0D2
:1051A0001A15252424311533152439434715154B79
:1051B00024245E5E74741515151515151515151531
:1051C000157B868EFF2A00F081804FF4A16151206B
:1051D000FCF7E0FE1A785B68012A02D193F81031DF
:1051E00001E093F81931037110BD5968D1F8BE215F
:1051F0004260D1F8C22182605B68D3F80431C36099
:10520000F2E75B68EAE70146BDE81040184600F0A7
:105210000DBA59224271002210238271202203719B
:10522000C2710372E0E75B6893F80A31DBE7BDE81F
:10523000104000F0EBB95A681B784BB992F8103166
:1052400033B192F80D31037192F80C314371CBE711
:1052500092F80B31037192F80A31F7E75B68B3F803
:1052600054200271120A4271B3F812218271120A9B
:10527000C271B3F850200272120A4272B3F81031B0
:1052800083721B0AC372AFE75B6893F82621027131
:1052900093F82731DAE7124A1468002CA4D00146AB
:1052A0001A4623202346BDE8104018470C4A1468CC
:1052B000002C99D001461A462420F3E7084A1468C6
:1052C000002C91D001461A462520EBE75B68BDE82B
:1052D000104093F83722D3F8381209F0B5BD00BF5B
:1052E000B00200203F2803D8064B53F82000704737
:1052F00000F10C03DBB2042B01D8B438F4E7002032
:10530000704700BF880000203F2803D8064B53F8A1
:105310002000704700F10C03DBB2042B01D8B43835
:10532000F4E70020704700BF9C010020F7B54568F6
:105330002E6904464FF6FF770DF102010DF10102CF
:105340003046ADF8027008F09AF901A9304608F02D
:10535000BBF940B1019808F07FFA6168002202723F
:10536000FFF7A6FDE8E7044905F1A00003B0BDE89A
:10537000F04009F0EABD00BF01F20000F0B50446BC
:1053800085B00D46FF2600F8856C10F8863CF3B119
:10539000184F3B781BB148211F20FCF7FBFD0C2167
:1053A000381DFCF73DFF3E70002304F8853C2A467B
:1053B000072302F8033BD4F80930C5F80330D4F8CA
:1053C0000D305360D4F81130936005B0F0BD01A8E2
:1053D0000C21FCF725FFA4F51373039AC3F80421ED
:1053E00001AB03CB44F88E0C44F88A1C04F8866C9D
:1053F000DAE700BF1C13002010B5054C23782BB949
:105400000C21201DFCF70CFFFF23237010BD00BFF3
:105410001C130020024690F8C631BBB990F8C73182
:1054200003F0FF010BB100207047094B18780028EA
:10543000F9D01970D968C2F80411043303CBC2F84B
:10544000BE01C2F8C211FF2382F8C63101207047A5
:105450001C13002038B5426892F8873004460D4688
:105460003BB1132B05D0113B0B2B8CBF0120082027
:1054700038BD92F8C83013B9204609F07EFE626844
:10548000D5F80E30C2F8B631D5F81230C2F8BA31BC
:105490006368D5F81620C3F800211A88A3F85522AE
:1054A0006A68C3F85722AA68C3F85B226368AA89AE
:1054B000A3F85F226368002583F8C6516068054938
:1054C00000F5137009F03EFD6368152283F887200C
:1054D0002846CDE77D53000038B5436893F8872010
:1054E0001C2A044604D04FF4DE711F20FCF752FD45
:1054F00093F8C8101D88002283F8C72003F5C970EF
:1055000069B10B4983F8C820A3F89C5183F89B210B
:1055100009F018FD6368002283F8872038BD012256
:1055200083F89B11A3F89C51024983F89E21EFE771
:1055300061F4000053F4000038B54568AB6F13F018
:10554000010417D14A680C4B896813400B4AC5F80F
:10555000D830C3F3076343F008030A4085F8DB3013
:10556000C5F8DC2009F009FEAB6F43F00103AB671F
:10557000204638BD0120FCE72FC904F76FDB00800F
:1055800008B5406890F88630042B28D14B688A68AB
:10559000C0F8D830C3F3076343F0080380F8DB306A
:1055A0000023C0F8DC2080F8C23080F8863090F804
:1055B000743103F0FF020BB1002008BD0388A0F88E
:1055C000763180F875214B68C0F878318B68C0F867
:1055D0007C31044900F5B67009F0B4FCECE7012019
:1055E000EBE700BF43F50000406890F8743153B911
:1055F0000388A0F876311A2380F87531024900F546
:10560000B67009F09FBC704743F5000010B5044622
:10561000FEF748FC034A044B02400B406260A36063
:1056200010BD00BF2FC904F76FDB008037B50C46F3
:105630004568FEF737FC084A084B0A4095F8D81031
:105640000192034000930B408DF800306B4603CB72
:105650006060A16003B030BD6FDB00802FC904F72C
:1056600038B5DB04154604D5037D13B1002343632D
:1056700038BD446B0134446309F0CAFF836B9C421C
:10568000F6D30023436303492846BDE8384009F0B8
:1056900062BC00BF9FF5000038B5446894F88630BE
:1056A000012B054602D0A36F98073CD494F8C9306B
:1056B0009A0715D40A7984F8D320B1F80520A4F804
:1056C000D420B1F80720A4F8D620D80743F002026E
:1056D00084F8C9200FD5154904F1CA0009F03BFC34
:1056E00094F8C930D90711D4A36F9A0708D555216A
:1056F0004020FCF74FFC94F82A31002BEBD1EFE768
:1057000043F00203A367284609F037FD94F886307A
:10571000012B4FF0000301D0002038BD84F8863003
:1057200084F8C230F8E70120F7E700BF31F6000047
:1057300070B545680446FFF74BF9054B85F88500C1
:105740001B6801461BB12046BDE87040184770BD7C
:10575000B8020020024B1B6803B11847704700BF16
:10576000B4020020F0B51F4D2B78002414709BB1BB
:10577000013B6D68DBB21E1B012E0FDC05EBC4067E
:1057800055F8347076688E4208BF874227D0B842F9
:1057900071EB060612D214700020F0BD1E197710AE
:1057A00005EBC70E55F837C0DEF804708445C6F324
:1057B00047068F412CBF33463446DCE705EBC30474
:1057C00055F8335064688C4208BF854206D0A84221
:1057D00071EB040428BF01331370DDE71C4614701D
:1057E0000120DAE73C13002010F0070208B503D0CF
:1057F00063214820FCF7CEFB18B1034B19725860A7
:105800001A70C80008BD00BF3C130020014B0022E5
:105810001A7070473C1300200A46822302F8033BAB
:1058200004480368C1F80330436853608368936099
:10583000704700BF4513002002481622002107F0E0
:105840002BBB00BF4513002082B002AB03E903006D
:105850000B48437D93B1530610D50A880280D1F8D6
:105860001822B1F880304260D1F81C2205498260CC
:10587000438002220C3002B0FFF72CBB02B070470D
:105880004513002019580000094B53F8203070B51B
:1058900003F523430C461646A1334FF47A72B3FB4B
:1058A000F2F503F075FB34442C44204470BD00BF76
:1058B00070C902002DE9F04F8DB09A4690F869301A
:1058C000029304468946069208F05FFF834694F8E7
:1058D0007300FFF75DF8834409F0F1FE94F8873018
:1058E0000393069B1FFA8BFB00F1500783BB94F8D0
:1058F000DC31032B2CD1039B0D2B29D1B4F83C3286
:105900004B4525D1D4F8E431C4F8D031A369B4F8BB
:10591000B421C4F8D431B4F82A321344C4F8D831CD
:10592000204602F04FFAD4E99023A262B4F83E2256
:10593000A285D4F84822226241F64B529342A361D9
:105940008CBF0023012384F87230022384F8DC31F9
:10595000B4F82852B4F88080A9EB05052DB204F5FF
:10596000FC73A9EB0808002D04930FFA88F818DAE5
:10597000D4E98423C4E98823012345460493CA4B10
:105980001B7813B106F078FB70B9002694F8DC316F
:10599000032B00F2DE81DFE813F06C006601BD002E
:1059A0008B01CDF810A0EAE7B4F8C831012BECD98F
:1059B00094F8DC31022BE8D094F8F661002EE4D1A3
:1059C00094F87300FEF7E4FF94F8DC3100F5C86B3F
:1059D000012B1FFA8BFBD9B23ED194F88A20A36A1F
:1059E000032A32D1D4F8D42113445946D4F8D4012F
:1059F000079306F005FBD4F8D061079BD4F8D821B3
:105A0000C4F8D001861B59461846564306F0F8FAEA
:105A1000D4F8E031C4F8E001C31A5946A0691E4425
:105A200006F0EEFAB4F8B431D4F8D82143445B1B45
:105A30009B1AD4F8E421013B821A02FB036601237E
:105A4000C4F8E40184F8F631A0E73046079309F082
:105A500072F8079B0344C8E7A069594606F0D0FADC
:105A6000B4F8B461D4F8E4314644761BC31A5E43FB
:105A7000E5E70121002009F05EF88046A06A59465A
:105A8000404406F0BDFA5946C4F8E001A06906F0AA
:105A9000B7FA09A9C4F8E4010AA803F035F9099B8B
:105AA0000093D4E98801DDE90A2305F093F9029017
:105AB000204609F01CFEA16AD4F82C2294F8690053
:105AC0008D1803F06DFAD4F8E011029B203D6D1A99
:105AD000ED1B454400F52340ED1AA1304FF47A73D5
:105AE000B0FBF3F0A38D30312D1A03EB410194F894
:105AF00069003A46FFF7C8FED4F82C32EB1A223080
:105B0000B3F5917FC4F8E80159D240F2FC4130204E
:105B1000FCF740FAA36AD4F8D4015946184406F0B9
:105B20006FFA5946C4F8E001A06906F069FAC4F8B2
:105B3000E401204609F0DBFDA36AD4F8D4511D44EA
:105B4000B4F8B431002B40F08A80BAF1000F00F0B5
:105B5000868094F8690003F023FAD4F8E011D4F8B1
:105B6000183294F869206D1A203D1D44D4E984BC94
:105B70004E4B53F82220A5EB0B054FF47A7302F23B
:105B8000E732B2FBF3F21544ED1B00F52340A130E0
:105B9000B0FBF3F02D1AD4F8D821D4F8D03194F812
:105BA000690002FB0313A18D303301EB43013A4638
:105BB000FFF76AFE0123C4F8E80184F8DC31A36929
:105BC000D4F8E421E73B9B1ADF1B002384F8F8316B
:105BD000D4E988328742A5EB060528BF07465B1942
:105BE00042F10002C4E98232C4F8B07104F130001D
:105BF00009F028FAD4E98223C4E98823B4F8A03153
:105C0000A4F82892A3EB09031BB2002BD4BF0022F7
:105C10000122520084F80022039A38440D2AC4F865
:105C2000FC0100F09980BAF1000F40F0988094F8E0
:105C3000DC31002B00F0B080A169D4F8E43104F528
:105C4000FC70C91A08F010FF80B2002800F0A48090
:105C5000169B03B1188001200DB0BDE8F08FD4F879
:105C6000E0116D1A97E7D4F8E411A369B4F8B421F0
:105C7000D4F8D801D4F8D0C15B1A5D43D4F8E03130
:105C80004244121A3033013A0CFB003301FB023359
:105C9000A18D94F869003A4601EB4301FFF7F4FD4A
:105CA000C4F8E8018BE700BF6813002070C9020048
:105CB000D4F8E4E1A369A3EB0E035D4394F88630C6
:105CC000252B03D094F88730252B0CD1B4F83C3227
:105CD000A9EB03031B0406D4029A94F83F32002B6D
:105CE00018BF1A460292049BB4F8B4C143B3BCF186
:105CF000000F25D1D4E98623D4E98401904271EBC9
:105D0000030302D34FF4AA6101E794F869102C4B06
:105D100053F82130D4E98401CDE904010498203AF4
:105D2000121A03F2E7314FF47A7B03F52343B1FBF8
:105D3000FBF10A44A133B3FBFBF3D21AD21B154487
:105D40000CEB08010EFB01F1303102983A46490094
:105D5000A4E74FF4AD61DAE6BAF1000F1CD0B4F855
:105D6000C80118B3B4F8CA1194F8CC21A4F8CA1128
:105D700001FB0222904201F101050DDD002B0BDD3C
:105D8000002384F80032A4F8CA51FFF727F900F085
:105D90000700013084F8CC0194F8F70104F5FC7198
:105DA00004F010FE20B940F2B151B0E60146DBE745
:105DB000069B83F0010384F8F43100204CE700BF18
:105DC00070C90200F7B5044618B9E2213020FCF78B
:105DD000E1F8072900F2BC80DFE801F004844646C0
:105DE00041BA33B704F0DAFFC4E94001204601F0BC
:105DF0002DF8D4F8F400CB3804F0CCFE10B940F202
:105E00007B21E3E720460AF018F80546F8B9014679
:105E1000204609F03BFF00F1E506D4F8F400B0425B
:105E200009D2301A322838BF3220032104F0D4FEC0
:105E3000051E18BF0125C4F8F46020460AF017F8C3
:105E40003DB1204603B0BDE8F0400AF011B800258E
:105E5000F3E7D4E94023C4E93A2303B0F0BD03B02B
:105E6000BDE8F04002F05CBF09F01BFF002384F89E
:105E7000F93007460E4604F0DFFC0722A7FB023587
:105E800002FB0655D4F8EC200192D4F8E8209B18C8
:105E9000019A45EB0205D4F8CC2032B157EA06024C
:105EA00003D0984271EB050216D2022284F8F82042
:105EB000D4F80821D4F80CC1121A6CEB010C94F838
:105EC00018E1BEF1000F09D1012A7CF1000E11DAB0
:105ED000204600F0C3FF05E00122E7E7012A7CF13C
:105EE000000CF5DB94F8C80004F0C0FC002384F833
:105EF0001031B2E7984271EB050E0ED23E430CD042
:105F00001B1A65EB01019A427CEB010005DB012BBA
:105F100071F10000A4BF1A468C460F4994F8C800DE
:105F20000123914284F811314FF0000384F8F030DE
:105F300073EB0C03B8BF0A4604F1F00104F058FFFC
:105F400000288AD140F2EF6140E74FF480713DE7CD
:105F50004FF482713AE700BF0040420F2DE9F04153
:105F600004460E46154690F8103103F0FF071BB1AA
:105F70000C273846BDE8F0810146474804F088FC0C
:105F800020288046F4D05722394604F1C90006F093
:105F900083FF84F8C880C4F8CC60FF2384F81031F4
:105FA00036B1FFF733F800F00700013086F8CC0176
:105FB00002234FF00008A4F8F83084F8F08006F0CF
:105FC00071F800F19E06204609F037FFB6B201468F
:105FD000002839D008F0D9FB00F5CD6189B22846F8
:105FE00006F00EF82844C4F8F40004F025FC30183C
:105FF00041F10001C4E94001012084F8D000A4F877
:10600000268009F0D9FFE53D2D1AC4F8D4504FF091
:10601000FF356FF00041D4E94023C4E94251002527
:10602000C4E93823C4E93A2394F8C80084F811512C
:1060300042F2107204F1F00104F0DAFE38BB40F2D3
:10604000EB113020FBF7A6FF204609F01FFEDFF81A
:106050004C80E530C4F8F400B8F8020048B1E08C98
:1060600038B1FEF7D3FFB8F80230B0FBF3F202FB11
:106070001300064404F0E0FB361841F10001C4E9C6
:106080004061002DC3D0AD1941F10001C3E729469D
:10609000204609F0EFFE6CE7C55D000068130020A4
:1060A000F0B5002385B0CDE9003301238DF806302B
:1060B0006846FCF767FB70B11D4E01233371002762
:1060C000CDE9027702A8FCF75DFB0546C8B10023C5
:1060D000337105B0F0BD009809F024FCE8E790F8B2
:1060E000F70104F003FD94F8F70104F039FE94F889
:1060F000F70184F8DC5104F0B9FB202384F8F73170
:10610000DEE7029B002BDDD093F8F721202AD9D0BF
:1061100018884FF6FF739842D9D02946FCF7F8FA51
:1061200004460028DBD140F237113020FBF732FF64
:1061300068130020054B002201215A7119701A7151
:1061400042F210725A80FFF7ABBF00BF6813002005
:10615000014B5871704700BF6813002008B502F06A
:10616000B3FA044B9A6882422ABF1879002080F063
:10617000010008BD681300202DE9F34704460629F5
:1061800000F2DA80DFE801F0048673838A8FD3009F
:10619000D0E98401D4E98623904271EB030354D201
:1061A00094F8F631002B50D094F8DC31032B4CD10D
:1061B00009F085FA94F869A0814608F0E6FA0646E7
:1061C00094F87300FEF7E4FB064494F87300FEF7BE
:1061D000DFFBD4E98423D4F81872D4F8B051804698
:1061E0005046BF1A02F0D4FE554A52F82A20A5F1B3
:1061F000500302F52342A1324FF47A71B2FBF1F25F
:106200009B1AA3EB09031B1A09F1790909EB53093E
:10621000B6B2603B08F5C86873431FFA88F8B3FB51
:10622000F8F360335A08A9EB53039F4202D3914419
:106230004F4501D905F026FFA069314605F0E0FE83
:106240000023C4F8E40184F8F6313E4B1B7903F0D7
:10625000FF0263B90092B4F8A41101232046FFF7AE
:1062600029FB38B140F21E713020FBF793FE042366
:1062700084F8DC3102F03AFC04F0E2FAB4F8802051
:10628000A4F8F2210023A4F82A3284F8F53102B0F0
:10629000BDE8F087032380F8DC31F8E70AF02EF838
:1062A000C4E98601F3E790F86900264F09F00FFA78
:1062B000B530D4F8E431A56995288CBF0020C0F131
:1062C0009600C218954288BFED1A7B798CBF2D1AB3
:1062D00000251BB9236B9D4228BF1D4604F13000E9
:1062E000D4F8B06108F0AEFE0644022004F02EFDA2
:1062F000AD1B25EAE575854228BF054602212846E3
:1063000004F06AFC00B92E44012340F245123146E4
:10631000204608F0F4FED4F8B031B860A069184403
:1063200004F038FC0028B2D140F2A3319CE702B05F
:10633000BDE8F04709F0DBB940F2ED7194E700BF2A
:1063400070C90200681300202DE970430C46154601
:106350006ABB0246174994F8C80004F0C3FA20B992
:1063600040F2FD713020FBF715FE02F0ADF9D4E9E3
:106370004089064684F8D05084F810510121D4F8A1
:10638000CC00FEF795FAD4F8CC00C0E9848994F8E3
:10639000C83080F8F731C0E98889C0F82C6209F06C
:1063A00096FA02F0A3FBBDE8704304F049BA40F648
:1063B0001801D7E709F70000014B5880704700BF6C
:1063C00068130020074A03461068D3F85120C0F82C
:1063D0000320B3F85520A0F8072093F8501008F0D8
:1063E000A4BC00BF7413002070B504460E46658837
:1063F000407F15F00401134618BF04F15F013246D7
:10640000FEF782F94107054621D4C2070BD50123C7
:1064100084F85030607FFEF7DBF90368C4F8513030
:106420008388A4F85530AB0701D4012070BD094B17
:106430001868D4F85F30012184F85E10C0F8093084
:10644000B4F86330A0F80D3008F078FCEDE70020D8
:10645000ECE700BF7413002038B5C38D0F4D013336
:10646000C3F30E03C385AB7C04462BB102F00AFCD8
:1064700001F030FD0023AB7400232B7194F87130D0
:106480002BB101212046BDE8384009F0F7BA637C02
:1064900013B1E28D9A42F4D20021F3E77413002085
:1064A00010B5094C2379012B02D02379022B05D199
:1064B000A37C1BB102F0E6FB01F00CFDE069BDE836
:1064C0001040FFF7C9BF00BF7413002070B5294CFE
:1064D0002379012B07D02379022B04D040F65C41AD
:1064E0002D20FBF757FDA0B90125A37C1BB102F0BD
:1064F000C9FB01F0EFFC002D3AD0E06909F037FA52
:10650000002830D002F0A0FA236ABDE870409B68F2
:1065100018472168E26911F8095B02F15103E809A3
:1065200092F8502008F039FA0028DDD020680021C8
:1065300008F029FC0028D7D02379E069012B05D089
:106540002379022B02D040F63541C9E72379226A2C
:1065500003F180435269013B05F00F0152F82330EB
:1065600098470546C1E7E069BDE87040FFF774BF92
:1065700070BD00BF74130020074A0346D06903B9F9
:1065800009B9FFF769BF1379126A03F180431269F1
:10659000033B52F823301847741300202DE9F043D1
:1065A000032985B00546174607D14388980723D4A9
:1065B0000024204605B0BDE8F083428890F8703092
:1065C000D107DBB2F4D5002BF2D14FF00108DFF890
:1065D000D49099F81260C6B108F023FA08283870F0
:1065E00016D002AA0DF10701FEF764F838B940F69B
:1065F000D4612D20FBF7CEFC4FF00208E7E79DF8B1
:10660000070002A909F051F806463B78082B08D18B
:10661000D9F8001011F8030BC0F3801009F045F809
:106620000646D9F8001095F8572011F8030B05F12C
:106630005803C0F3801008F0B0F9D9F800100446F0
:1066400011F8030BC0F3801008F0E1F98146FEF762
:10665000D1F840B1B9F1080F1BD04846FDF756FFFD
:1066600080F00103D8B23A78082A14D01CB96C7FA4
:10667000A21A544254416A8853079AD4002897D1E9
:1066800076B9EC7C444518BF002C0CBF01240024D3
:106690008FE70020E7E780F001022240D4B2EAE76A
:1066A000344686E7741300202DE9F04F85B00823A7
:1066B0000DF10702052104468DF80730FFF76EFF44
:1066C000064620B90026304605B0BDE8F08F744F6D
:1066D0003968FA7C11F8030B07F11403C0F380103A
:1066E00008F05BF980460028ECD13B68216A184627
:1066F00091F88E2010F8035B02EA551202F00102B5
:1067000081F88E20D3F80320C1F803208288A1F8F5
:1067100007201D46226A15F81F1BC1F380119170D6
:10672000D3F81F00029002A928790871D3F80F004E
:10673000D061587D1D7D000440EA0520DD7C2843A2
:106740005062B3F8190082F8728040F2E24909FB06
:1067500000F090619D7DC5EB451005EB800505EBD4
:1067600085056D009585B3F8170009FB00F0906270
:10677000B3F81B001084B3F81D00508493F8243044
:1067800003F01F005B0982F89A0082F87330256AD3
:1067900094F912A005F18E0008F023FA40F20113DB
:1067A000A5F868304FF0FF0B85F86AB0414605F157
:1067B0003000FEF79BFB51462846FEF7DFF8236AC0
:1067C00084F87B801A88A4F87C2084F899B04FF66E
:1067D000FF72A4F89A209A69B2FBF9F2A4F8922009
:1067E0001A8CA4F894205A8CA4F8962093F873205D
:1067F00084F89820227F9DF8070004F186015AB39F
:1068000094F85020012A27D194F8562002F0C002B3
:10681000402A21D1D4F85120C4F88620B4F855205C
:106820008A809A7884F87F20082803F1030504F110
:106830008C01D3F8033004F1800227D0C4F88C30E7
:10684000AB888B8004F17F01FDF734FF40B940F63F
:10685000BB312D20FBF79EFB0022C4F88620DFE72A
:1068600094F87F3043F0020384F87F3004F1720023
:106870000C4908F067FB0C4B206A1B6800223A7138
:10688000002B3FF420AF214698471CE7C4F8803026
:10689000AB8893800023C4F88C308B80E6E700BF80
:1068A00074130020A3FB0000C0020020032973B56D
:1068B000044604D0052952D0012002B070BD08233F
:1068C0000DF107028DF80730FFF768FE0028F3D0BE
:1068D000237C274D03B39DF8070094F8BE30DBB945
:1068E000237884F8BF30082804F1C10228D004F1CD
:1068F000C001FDF7DFFE20B940F64A712D20FBF7FD
:1069000049FB94F8C03043F0020384F8C0301949C1
:1069100004F1B60008F016FB2B68062204265A7014
:106920001E702046FFF74EFD286894F84020E16B6A
:1069300008F01AFA28682E7102F026F90020BCE748
:106940002868034613F8031BC1F3801184F8C010B4
:10695000D0F80310C4F8C1109B889380D7E7064B8A
:106960001B68002BEAD0984780F00100C0B2A4E772
:10697000741300208BFB0000BC020020F8B5044615
:106980000F4619B300F12805284609F0EEFAA0B920
:1069900063881A072ED5284609F0FEFA06462846CF
:1069A00009F0E3FA301AC0B209F006FB474A9368CF
:1069B00003442846936009F0B4FA284609F0B6FA71
:1069C00001F0A8FF2179252001F0C6FE3F4E94F882
:1069D0005E2030680023037043706388103B0D2BEA
:1069E00064D8DFE803F05F635B0C63406363636359
:1069F000636363402046BDE8F840FFF72DBD0623E2
:106A00004370202303702046FFF7DCFC638823F0EB
:106A100008039BB2152B05D094F83820616B3068C1
:106A200008F093F9306802F0AFF80323217933714D
:106A3000002001F099FF054607B9F06063881B0745
:106A400004D509F0B6FA0544C4F8D8506388103B61
:106A50000D2B36D8DFE803F038352F2F352F35359D
:106A600035353535352F0C2343700346212103F886
:106A7000091B52B1D4F85F20C0F80920B4F8632094
:106A80009A80012108F05AF9BDE7A26DC0F80920EB
:106A9000B4F85C209A8094F85710F3E7062303704B
:106AA0004370B0E7022303700623F9E740F2366132
:106AB0002D20FBF76FFA21790120BDE8F84002F0A4
:106AC00007B940F6CF41F3E7F8BD00BF74130020CB
:106AD00038B54388102B044604D1BDE83840012165
